:100000000C9434000C9446000C9446000C9446006A
:100010000C9446000C9446000C9446000C94460048
:100020000C9446000C9446000C9446000C94460038
:100030000C9446000C9446000C9446000C94460028
:100040000C9446000C9446000C9446000C94460018
:100050000C9446000C9446000C9446000C94460008
:100060000C9446000C94460011241FBECFEFD8E03C
:10007000DEBFCDBF21E0A0E0B1E001C01D92A03005
:10008000B207E1F70E9461000C949F000C940000FD
:10009000FC01408121E030E002C0220F331F6A954D
:1000A000E2F7242B20830895FC01908121E030E0C9
:1000B00002C0220F331F6A95E2F72095292320837F
:1000C00008958FE084B915B860E08BE290E00E945B
:1000D000480061E08BE290E00E94480062E08BE221
:1000E00090E00E94480063E08BE290E00E944800AC
:1000F0002FEF83ED90E3215080409040E1F700C066
:10010000000060E08BE290E00E94540061E08BE22E
:1001100090E00E94540062E08BE290E00E94540064
:1001200063E08BE290E00E9454002FEF83ED90E3B8
:10013000215080409040E1F700C00000C5CFF89406
:02014000FFCFEF
:00000001FF
