:100000000C9434000C9446000C9446000C9446006A
:100010000C9446000C9446000C9446000C94460048
:100020000C9446000C9446000C9446000C94460038
:100030000C9446000C9446000C9446000C94460028
:100040000C9446000C9446000C9446000C94460018
:100050000C9446000C9446000C9446000C94460008
:100060000C9446000C94460011241FBECFEFD8E03C
:10007000DEBFCDBF21E0A0E0B1E001C01D92A43001
:10008000B207E1F70E9461000C94E3010C940000B8
:10009000FC01408121E030E002C0220F331F6A954D
:1000A000E2F7242B20830895FC01908121E030E0C9
:1000B00002C0220F331F6A95E2F72095292320837F
:1000C000089580E49CE9A0E0B0E080930001909363
:1000D0000101A0930201B09303018FEF84B99FE364
:1000E00097B98AB915B818B81BB864E08BE290E0EC
:1000F0000E94480065E08BE290E00E9448002FEFEC
:1001000089E698E1215080409040E1F700C000006E
:1001100064E08BE290E00E94540066E08BE290E0A5
:100120000E9448002FEF89E698E1215080409040DE
:10013000E1F700C0000065E08BE290E00E9454000F
:1001400067E08BE290E00E9448002FEF89E698E19B
:10015000215080409040E1F700C0000066E08BE253
:1001600090E00E94540060E085E290E00E94480028
:100170002FEF89E698E1215080409040E1F700C0E0
:10018000000067E08BE290E00E94540061E085E2AD
:1001900090E00E9448002FEF89E698E121508040CE
:1001A0009040E1F700C0000060E085E290E00E942E
:1001B000540062E085E290E00E9448002FEF89E65B
:1001C00098E1215080409040E1F700C0000061E0DC
:1001D00085E290E00E94540063E085E290E00E9496
:1001E00048002FEF89E698E1215080409040E1F7E8
:1001F00000C0000062E085E290E00E94540064E0EC
:1002000085E290E00E9448002FEF89E698E12150B6
:1002100080409040E1F700C0000063E085E290E09C
:100220000E94540065E085E290E00E9448002FEFB4
:1002300089E698E1215080409040E1F700C000003D
:1002400064E085E290E00E9454002FEF89E698E197
:10025000215080409040E1F700C0000064E085E25A
:1002600090E00E9448002FEF89E698E121508040FD
:100270009040E1F700C0000065E085E290E00E9458
:10028000540063E085E290E00E9448002FEF89E689
:1002900098E1215080409040E1F700C0000064E008
:1002A00085E290E00E94540062E085E290E00E94C6
:1002B00048002FEF89E698E1215080409040E1F717
:1002C00000C0000063E085E290E00E94540061E01D
:1002D00085E290E00E9448002FEF89E698E12150E6
:1002E00080409040E1F700C0000062E085E290E0CD
:1002F0000E94540060E085E290E00E9448002FEFE9
:1003000089E698E1215080409040E1F700C000006C
:1003100061E085E290E00E94540067E08BE290E0AB
:100320000E9448002FEF89E698E1215080409040DC
:10033000E1F700C0000060E085E290E00E94540018
:1003400066E08BE290E00E9448002FEF89E698E19A
:10035000215080409040E1F700C0000067E08BE250
:1003600090E00E94540065E08BE290E00E9448001B
:100370002FEF89E698E1215080409040E1F700C0DE
:10038000000066E08BE290E00E94540064E08BE2A3
:1003900090E00E9448002FEF89E698E121508040CC
:1003A0009040E1F700C0000065E08BE290E00E9421
:1003B00054002FEF89E698E1215080409040E1F70A
:0A03C00000C0000092CEF894FFCFB9
:00000001FF
