:1000000033C0000039C0000037C0000035C0000018
:1000100033C0000031C000002FC000002DC0000020
:100020002BC0000029C0000027C0000025C0000030
:1000300023C0000021C000001FC000001DC0000040
:100040001BC0000019C0000017C0000015C0000050
:1000500013C0000011C000000FC000000DC0000060
:100060000BC0000009C0000011241FBECFEFD8E074
:10007000DEBFCDBF02D048C0C3CF44D060E085E230
:1000800090E015D02FEF87EA91E621508040904014
:10009000E1F700C000004A9905C062E085E290E007
:1000A00012D0ECCF62E085E290E019D0E7CFFC01FE
:1000B000408121E030E002C0220F331F6A95E2F751
:1000C000242720830895FC01408121E030E002C014
:1000D000220F331F6A95E2F7242B20830895FC0139
:1000E000908121E030E002C0220F331F6A95E2F7D1
:1000F00020952923208308958FEF84B915B81AB865
:0C0100008BB90895F9CF0895F894FFCF53
:00000001FF
