S0110000486F6D65776F726B312E7372656396
S11300000C9434000C9446000C9446000C94460066
S11300100C9446000C9446000C9446000C94460044
S11300200C9446000C9446000C9446000C94460034
S11300300C9446000C9446000C9446000C94460024
S11300400C9446000C9446000C9446000C94460014
S11300500C9446000C9446000C9446000C94460004
S11300600C9446000C94460011241FBECFEFD8E038
S1130070DEBFCDBF21E0A0E0B1E001C01D92A03001
S1130080B207E1F70E9461000C94F2000C940000A6
S1130090FC01408121E030E002C0220F331F6A9549
S11300A0E2F7242B20830895FC01908121E030E0C5
S11300B002C0220F331F6A95E2F72095292320837B
S11300C008958FEF84B99FE397B98AB915B818B822
S11300D01BB864E08BE290E00E94480066E08BE28B
S11300E090E00E94480060E085E290E00E944800B1
S11300F062E085E290E00E94480064E085E290E0DE
S11301000E9448002FEF83E294EF215080409040FA
S1130110E1F700C0000064E08BE290E00E9454002C
S113012066E08BE290E00E94540060E085E290E09B
S11301300E94540062E085E290E00E94540064E072
S113014085E290E00E9454002FEF83E294EF215067
S113015080409040E1F700C0000065E08BE290E051
S11301600E94480067E08BE290E00E94480061E052
S113017085E290E00E94480063E085E290E00E94FE
S1130180480065E085E290E00E9448002FEF83E29A
S113019094EF215080409040E1F700C0000065E0FA
S11301A08BE290E00E94540067E08BE290E00E94B2
S11301B0540061E085E290E00E94540063E085E22F
S11301C090E00E94540065E085E290E00E945400B3
S11301D02FEF83E294EF215080409040E1F700C07C
S10B01E0000077CFF894FFCF73
S9030000FC
